:020000040804EE
:1000000040110024350A04087F340408210A04083A
:10001000210A0408210A0408210A0408000000003B
:10002000000000000000000000000000210B040898
:10003000210A040800000000BD0A0408611D04082C
:10004000A10C0408A10C0408A10C0408A10C0408CC
:10005000A10C0408A10C0408A10C0408A10C0408BC
:10006000A10C0408A10C0408A10C0408A10C0408AC
:10007000A10C0408A10C0408A10C0408A10C04089C
:1002980053B94AB9002908BF00281CBF4FF0FF31E5
:1002A8004FF0FF3000F00CB8ADF1080C6DE904CE4A
:1002B80000F008F8DDF804E0DDE9022304B0704737
:1002C800704700BF2DE9F04786468C460846089ED1
:1002D800154674461946002B40F0C2808542B2FA92
:1002E80082F245D94AB1C2F1200300FA02FC2EFA83
:1002F80003F3954043EA0C0C94404FEA154EA8B21C
:10030800BCFBFEF8230C0EFB18CC08FB00F943EAF3
:100318000C43994528D9EB1808F1FF3704D29945C1
:1003280002D9A8F102072B44A3EB0903A4B2B3FB3B
:10033800FEFC0EFB1C330CFB00F044EA0344A04215
:1003480014D92C190CF1FF3304D2A04202D9ACF114
:1003580002032C44241A43EA07401EB1D440002368
:1003680034607360BDE8F0874746DDE76346F1E730
:1003780092BB431B01214FEA154EAFB2B3FBFEFC03
:10038800200C0EFB1C330CFB07F840EA034398458E
:1003980062D9EB180CF1FF3004D2984502D9ACF1C0
:1003A80002002B44A3EB0803A4B2B3FBFEFC0EFB34
:1003B8001C330CFB07F744EA0344A7424ED92C1917
:1003C8000CF1FF3304D2A74202D9ACF102032C444A
:1003D800E41B43EA0040C0E7C2F1200320FA03F11E
:1003E800954090402EFA03F303434FEA154EAFB2FF
:1003F800B1FBFEFC0EFB1C10190C0CFB07F841EAC4
:100408000041884504FA02F422D969180CF1FF303A
:1004180004D2884502D9ACF102002944A1EB0801B5
:100428009BB2B1FBFEFC0EFB1C110CFB07F743EA69
:1004380001439F420ED9EB180CF1FF3104D29F42C1
:1004480002D9ACF102012B44DB1B41EA004192E7DF
:100458006046E3E76146F7E76046A3E76346B7E728
:10046800834206D916B9002108467BE7C6E900E0B1
:10047800F9E7B3FA83F78FB9834201D3724508D8F5
:10048800BEEB020460EB030301209C461EB9002169
:1004980068E73846FAE7C6E9004CF8E7C7F1200CE8
:1004A800BB4022FA0CF41C432EFA0CF120FA0CF390
:1004B800B84001434FEA14490EFA07F5B3FBF9F8BF
:1004C8001FFA84FE09FB18300B0C08FB0EFA43EAEE
:1004D80000439A4502FA07F240D9E31808F1FF30C1
:1004E80004D29A4502D9A8F102002344A3EB0A03D7
:1004F80089B2B3FBF9F809FB183308FB0EFE41EA91
:1005080003418E452CD9611808F1FF3304D28E457A
:1005180002D9A8F10203214443EA0040A0FB029853
:10052800A1EB0E014145CE46434602D306D14D45C7
:1005380004D2B9EB020E68EB04030138002EA6D0F2
:10054800B5EB0E0261EB030101FA0CFC22FA07F38A
:100558004CEA0303F940C6E9003198E74046C5E78D
:100568004346D9E7F8B5174D284603F02FFB044654
:1005780028B32A692846A968136843F02003136042
:10058800114A0B6805219847002818DB0F4F104EB9
:10059800AB68202128465B69984700280FDB84F068
:1005A80001040C4814F0FF0414BF3946314602F028
:1005B800F7FB002142F2107002F0E8F9E8E70020AA
:1005C800F8BD00BF2440040801000600564804088E
:1005D800594804085D480408014B1B68184700BFC8
:1005E8000000002430B585B004460D4610220021D5
:1005F800684603F087FC02232A4621468DF802301C
:100608006846034B019302F0DDFB05B030BD00BF27
:10061800E1050408014B1860704700BF0000002482
:1006280080B505460E461746984602F0CBF9DFF826
:100638002090034603F06EFC0446424649F8003019
:1006480039463046A84754F8090000F005FA00BFBB
:1006580008000000104B114A1A60114BDA6822F0AA
:100668003F0242F00402DA609A6942F440429A6119
:100678009A699204FCD50B4B1A6841F20303B3EB59
:10068800124F06D1084AD2F8083143F00103C2F8E4
:1006980008310020704700BF400000240090D003BC
:1006A800004802580010005C00800051164B82B0D0
:1006B800D3F8E02042F00072C3F8E020D3F8E0203D
:1006C80002F000720192019AD3F8F42042F002027B
:1006D800C3F8F420D3F8F42002F002020092009A42
:1006E8000A4AD2F80423D20706D503F50053D3F8F3
:1006F8009030002002B07047D3F8A02042F00802E2
:10070800C3F8A020F5E700BF0044025800040058D1
:10071800014B0360012070470C46040830BFFFF707
:10072800FDBF00BF2DE9F0410B4E0546DFF82C80D8
:10073800324606EB0807CC1B0949204603F0D4FBD8
:10074800A019083C4246002103F0DCFB07F1080031
:100758002C67BDE8F08100BF000000000400000025
:10076800D8450408044B99685869884203D003495E
:100778004FF080520A6070473403002404ED00E013
:10078800264B70B515469A6A064612F0100F9A6AFB
:1007980014BF1124102412F0080F9A6A18BF1224EB
:1007A80092070AD5586B9A6A140634D519B19A6A11
:1007B80022F080029A62132401E06FF01500174BB3
:1007C8009A6A12F0010F9A6A18BF142412F0200FC7
:1007D8009A6A18BF1524D20602D49B6A9B070AD5C9
:1007E8000E4B5B68190506D5314600F003FA10B1C7
:1007F80080F309880224094B9A6A920603D55A6A3B
:1008080022F400525A629A6A204642F0FF029A6223
:1008180000232B7070BD6FF01500CCE700ED00E0F1
:10082800134B9A6A12F0007F9A6A14BF1E201D208B
:1008380012F0807F9A6A18BF1F2012F4002F9A6A5C
:1008480018BF212012F4802F9A6A18BF222012F4B0
:10085800003F9A6A18BF232012F4803F9A6A6FEA11
:10086800024218BF24206FEA12429A62704700BF02
:1008780000ED00E0194B024610B5986A9C6A10F426
:10088800805F14BF1720162014F4006F9C6A18BFED
:100898001820A40509D5986B986A000404D51AB1E4
:1008A8009A6A22F400429A6219200C4B9A6A12F44E
:1008B800806F9A6A18BF1A20D2050CD49B6A13F469
:1008C800005F18BF1C20054A936A43F47F43936274
:1008D80000230B7010BD1B20F5E700BF00ED00E002
:1008E800484BF0B55B688BB004460025C3F308039A
:1008F80085F31188BFF36F8F02F07F40B0F17F4F0F
:1009080011D102F00C0008280DD010074CBF0C467E
:1009180001250022033B8DF80720032B05D8DFE8CB
:1009280003F0256468612C46F3E700239DF807204F
:10093800D2B902AE04F120072068083454F8041C28
:100948003246BC4203C21646F6D1099A002D54D04D
:10095800C2F3080121B96FEA52226FEA42220992D2
:1009680002A9184602F081FD0BB0F0BD254BDA6AEA
:100978009107DAD4DA6A002AD7DBDA6A5200D4D5CA
:100988005A69A16942F480725A61BFF34F8FBFF36D
:100998006F8F5A6931F8021C22F480725A61BFF3D2
:1009A8004F8FBFF36F8F4DF6027291420AD09A6A49
:1009B800D2B24AB10DF1070201212046FFF7E0FE4D
:1009C8000346B3E72368B1E79A6A12F47F4F05D06C
:1009D8000DF107010120FFF74DFFF1E79B6AB3F521
:1009E800803FA2D3FFF71CFFEAE70DF107020021C1
:1009F800E3E70DF107010020EDE722F4FF7222F092
:100A08000102ACE700ED00E0024A536943F010032D
:100A18005361704700ED00E0EFF30880EFF30981C0
:100A280001B57246FFF75CFF01BD00BF102080F3DF
:100A3800118808484FF40461401880F30988EFF3DF
:100A480014800221084380F31488BFF36F8F00F0ED
:100A580097F8000080030024084B9B6883420BD161
:100A6800EFF3058343B1064B5A6842F080525A604F
:100A78005A6A22F400425A6203F08AB93403002405
:100A880000ED00E0094A6FF00A0193689967084988
:100A980058674B6843F080534B60002383F31188F9
:100AA800BFF36F8F9368986F704700BF34030024BB
:100AB80000ED00E015498A684FF030001044EFF36C
:100AC800098C80E8F01F102080F31288BFF36F8F25
:100AD8000F4F4FF000664A698A603E604FF070041D
:100AE800141920680B4C2060506F0023536780F363
:100AF800118804B5104600F0EFF8BDE8044002F193
:100B0800300090E8F01F8CF3098870473403002404
:100B180004ED00E0C00100241EF0040F0CBFEFF349
:100B28000880EFF30980816911F8021C0229FFD0BF
:100B380001B502F09CFC01BD00B2002807DB0123CF
:100B4800410900F01F00024A834042F821307047F3
:100B580000E100E000B2013100284FEA0111C9B2FA
:100B680006DB00F1604000F5614080F80013704733
:100B780000F00F00014B1954704700BF14ED00E05E
:100B88000F4A08B522F07F020E4B9A60BFF34F8FD1
:100B9800BFF36F8FD3F8882022F47002C3F888203F
:100BA800EFF3148323F0040383F31488BFF36F8FE8
:100BB80001F0B6FA01F092FF00F062F801F002FBD2
:100BC8000000040800ED00E042F8203C203A009BB9
:100BD80007495360019B21F001019360029B9161D9
:100BE800D3604FF08073D361002302654367704779
:100BF80029060408094A0346906870B113F1160FD4
:100C0800006E05D0A0F140029A4205D8834203D273
:100C1800814228BF00207047002070473403002419
:100C280014460B4A0D4608B50A4B9060026F1A60CD
:100C380000F052F8204685F30988002163B681F355
:100C48001188BFF36F8F00220023FFF7E9FC00BF74
:100C580034030024C0010024014910220A607047AF
:100C680010ED00E072B6404080F31188BFF36F8F3B
:100C7800BFF34F8F30BF62B6BFF36F8F704700BFAF
:100C8800002304481021C2180133962B82F8001360
:100C9800F9D1704700E100E001B5EFF30580A0F15C
:100CA80010004FEAC0000449014409C99847BDE84B
:100CB8000140024908470000284104086D0704085C
:100CC800024B0121024A034800F076B800000824CC
:100CD800000000241C460408026E4021044B403AE0
:100CE80018461A60034AC3E90112012100F06EB8E0
:100CF800C401002400000B15084AC2F898000B68CC
:100D080023F01F03034343F01003C2F89C308B68A1
:100D180043F00103C2F8A030704700BF00ED00E0C7
:100D28002DE9F0430E4685B01F4604464FF00009F2
:100D3800DFF85480B14523DA6068D8B13FB1411E6D
:100D480008421BD11F2819D92368194216D12368D4
:100D5800019302F09BFBA3680343D0B20393D8F836
:100D68009050C5F30725013DA84207D801A9FFF710
:100D7800C3FF421C09F101090C34DBE76FF01502CF
:100D8800104605B0BDE8F08300ED00E0044B0522F5
:100D9800C3F89420BFF34F8FBFF36F8F704700BF26
:100DA80000ED00E0BFF35F8F024B0022C3F89420F0
:100DB800704700BF00ED00E010B5034C0123227816
:100DC800FFF7AEFF207010BD640300240B4A08B57E
:100DD80000231278FFF7A4FF10F1160F07D0084A76
:100DE8000021D2F89030C3F30723984200DB08BDF6
:100DF800C2F898000130C2F8A010F2E7640300249A
:100E080000ED00E02DE9FF41524B534CD3F89030F0
:100E18002568C3F307239D4200F2998000200C2621
:100E2800FFF7C0FF854218D14C4C68464C4F2570DF
:100E3800FFF76EFC00250646DFF81881AE4213D195
:100E4800237800204349D1F89020C2F30722934227
:100E580077DB0020FFF79AFF1CE0616806FB0011B2
:100E6800FFF74AFF0130DDE700984FEA051C00EB69
:100E78000511CB683B40B3F5000F50D00DD8B3F542
:100E8800001F36D0B3F5800F3ED0B3F5801F13D0C6
:100E98006FF0150004B0BDE8F081B3F1807F47D052
:100EA800B3F1007FF4D150F80C30886802F0EEFA04
:100EB8004A6840F4802009E050F80C30886802F055
:100EC800E5FA40F088504A6840F4302003902078D2
:100ED800CDE90123D8F89030C3F30723013B9842AA
:100EE800D6D801A90135FFF707FF2378013323700E
:100EF800A4E750F80C30886802F0C8FA40F088502F
:100F08004A6840F40020E1E750F80C30886802F0A5
:100F1800BDFA40F0E0604A6840F40030D6E750F887
:100F28000C30886802F0B2FA4A6840F08270CDE767
:100F380050F80C30886802F0A9FA4A6840F08870C6
:100F4800C4E7C1F898300133C1F8A0007BE74FF03F
:100F5800FF309FE700ED00E0E0450408640300244B
:100F68000000F0FF08B5024B1B689847002008BD39
:100F7800D0010024034B044A1860937843F002031D
:100F880093707047D00100240400002406490748E4
:100F980021F00701C1F1105208B502F5002202F054
:100FA800F7F9002008BD00BF87110024D4010024F0
:100FB80010B50A4C204602F009FE60B122692046AD
:100FC800A168136843F040031360054A0B680621C3
:100FD800BDE8104018476FF0120010BD2440040807
:100FE80001000A002DE9F041054600244FF00108F0
:100FF8004FF0B0460E4F2B7853FA84F01F280FDCC1
:1010080008FA00F3D6F8882033EA020208D1C6F8B5
:10101800883057F830301BB107EBC0025168984749
:1010280001346A78E3B29A42E5D2BDE8F08100BFA4
:10103800E0010024044B03EB40000023013320F8B7
:10104800022B9942FADC70474C000024084B0246F8
:101058004FF0B04110B433F910000123D1F88040AB
:1010680093402343C1F8803010BCFFF765BD00BF33
:101078004C00002430B54FF48013234A234CD2F897
:10108800A450A5420AD05D1CF9D0013BF7D14040DD
:1010980080F311884FF0040002DFF0E703290FD82E
:1010A800DFE801F002131A264FF0B0430122196855
:1010B800824021EA02011960596821EA02025A6055
:1010C800114B4FF440725A6230BD01224FF0B043C9
:1010D800824019681143EEE74FF0B0430122596886
:1010E800824011435960196821EA02021A60E7E751
:1010F800012303FA00F04FF0B0431A6802431A6064
:101108005A6810435860DBE7006402580003008007
:101118000A4B30B553F830408C4204D103EBC0057C
:101128006D68954205D034B943F8301003EBC0031D
:101138005A60002030BD6FF00F00FBE7E00100248B
:10114800034B002243F8302003EBC0035A6070477A
:10115800E0010024034B04489B6A13F0030F18BFF7
:1011680000207047004402580090D00308B5084B8F
:101178001A6912F0380206D0182A06D1FFF7EAFFDA
:101188005043400808BD0348FCE70020FAE700BFC9
:101198000044025800127A00254B10B5186814460E
:1011A8000B680A2B22D813B96FF085001DE0013BAC
:1011B800092BF9D801A252F823F000BF171204082E
:1011C800ED110408B1110408B11104083312040820
:1011D800B1110408B11104081D12040827120408EB
:1011E8001D12040800202060002010BDD42BFAD066
:1011F800D83B1C2BD8D801229A4002F0113222F099
:101208008072002AEFD1182BCED14008EBE7FFF708
:10121800ADFFE8E7FFF79EFF18235843F5E7FFF710
:1012280099FF182358438008DDE70248DBE700BF31
:1012380040000024006CDC024FF48013084A09497E
:10124800D2F88C0088420AD0581CF9D0013BF7D15B
:10125800404080F311884FF0040002DFF0E7704748
:10126800006402580003008010B50A680C460A2A78
:101278002AD840F26273D340DB0725D5FFF7DCFF9D
:101288006268D3B2C2F34230C2F3042203F1B0431E
:1012980000FA02F203F51133196821EA02021A6012
:1012A8006168CBB2C1F30242C1F3042103F1B04338
:1012B8008A4003F511331868024300201A604FF47E
:1012C8004072034BDA6010BD6FF08500FBE700BF8A
:1012D8000064025810B50B680C46D43B202B11D87B
:1012E800FFF7AAFF23686168002003F1B04303F504
:1012F80011331A6822EA01021A604FF44072034B54
:10130800DA6010BD6FF08500FBE700BF006402588B
:1013180013B50B680C46D43B202B19D8FFF78CFF6C
:1013280023686168002003F1B04303F511331A689C
:101338000A431A604FF44072236803F1B04303F57F
:1013480011331B680193019B034BDA6002B010BD97
:101358006FF08500FAE700BF0064025813B5714CBE
:10136800D4F8E03043F00073C4F8E030D4F8E0304B
:1013780003F000730193019BFFF75EFF236843F0BE
:101388000103236023685807FCD5236843F018033A
:101398002360236843F480532360624B1A689104E6
:1013A800FCD51A6902F03802182A17D11A685207B0
:1013B80007D41A6842F001021A605A4A13685C0797
:1013C800FCD5584B1A6922F007021A611A6912F003
:1013D800380FFBD19A6922F00F029A61514B1A68B3
:1013E80022F080721A609A6A22F003029A629A6A5C
:1013F80022F47C7242F010029A62DA6A22F00C023D
:1014080042F00802DA62DA6A22F00202DA621A6B41
:1014180022F4FF7222F0010242F017021A63DA6A1C
:1014280022F00102DA621A6B22F47E4242F4007260
:101438001A63DA6A42F48032DA621A6B22F4FE0224
:1014480042F440321A63DA6A42F40032DA621A6B02
:1014580022F0FE4242F080721A63DA6A42F4802275
:10146800DA621A6842F080721A601A689001FCD534
:101478002D4BDA6822F03F0242F00402DA609A69E2
:1014880042F440429A619A699104FCD5FFF76EFED6
:1014980004462648844201D200F02CFD214B9A696B
:1014A80022F470629A619A6922F00F029A61DA69ED
:1014B80022F07002DA61DA6922F4E06242F48062B2
:1014C800DA619A6922F070029A611A6A22F070024F
:1014D8001A621A6922F0070242F003021A611A69B5
:1014E80002F03802182AFAD11048844201D300F0D9
:1014F80001FD0D4BDA6822F03F0242F00402DA6087
:101508009A6942F440429A619A699204FCD5084B60
:101518004FF440720020DA60064B044A1A6002B0A9
:1015280010BD00BF004402580048025800D8B80552
:10153800006402584000002408B5074802F046FB42
:1015480038B10648FFF716FD0448FFF763F8002096
:1015580008BD6FF01200FBE7004104086915040894
:101568000A2838B50446074D04D1AB680D21284632
:101578005B689847AB68E1B202485B6898472046C9
:1015880038BD00BF004104084FF48013094A2030D9
:10159800094910B552F820408C420AD05C1CF9D099
:1015A800013BF7D1404080F311884FF0040002DF7F
:1015B800F0E710BD006402580003008038B54368A6
:1015C80008200C465D68FFF7DFFF4FF440720020EB
:1015D8006B6963406B61014B1A6238BD0064025845
:1015E80070B5436808200D4614465E68FFF7CCFFC7
:1015F8004FF44072002073695C402C405C40024B01
:1016080074611A6270BD00BF0064025838B503697E
:1016180004465860084D284602F0D8FA40B161687F
:101628002846AB680C311B68984700EAE07038BD63
:101638006FF01200FBE700BFE83F04082DE9F8430C
:101648001646456801240820884602F030078C4079
:101658009946FFF799FF6A68C6F38013C6F3C1116C
:1016680022EA0402C6F3412603FA08F3202F43EACC
:1016780002036B6004FA08F3D5F808C003EB4300D3
:1016880003FB01F103FB06F62CEA000C6FEA0002EB
:1016980041EA0C01A960E96821EA000146EA01066D
:1016A800EE600FD1B8F1070F18DC03FA08F1286AC9
:1016B80001FA08F1C1EB011409FB01F120EA040069
:1016C8000143296229683F090A405F430A4B1743CF
:1016D8004FF440722F601A62BDE8F883240A696AE1
:1016E80064436443C4EB041009FB04F421EA0001D9
:1016F80021436962E6E700BF00640258F7B50C466B
:1017080011461E464568B1F5001F026928D104F04C
:1017180003030F223E4904339B009A4042EA940295
:1017280002F00303023351F82310130C93FAA3F3C6
:10173800B3FA83F301EA124203F01F0322FA03F318
:10174800AA689A4209D1204601F0FEFE2046FFF71A
:10175800F7FC00212046FFF78DFC002003B0F0BD08
:10176800B1F5800F4BD02B492046FFF7D1FC00285C
:1017780048D1B6F1806F3ED0B6F1C06F3DD0B6F11A
:10178800007F42D10226244A6B46AD6892E80300E6
:1017980083E803002148194682681268904710BB05
:1017A80004F003030F27092004339B009F40FFF731
:1017B800EBFE47EA940707F003033A0C92FAA2F209
:1017C8009B00B2FA82F203F1B04302F01F02D3F891
:1017D800081495404FF4407221EA17410D43C3F8AD
:1017E80008540F4B5A6220463146FFF743FC204607
:1017F800FFF72CFCB1E70126C5E70326C3E76FF026
:101808008500ABE76FF00F00A8E76FF01500A5E7BC
:101818000004005857360408D8450408E83F04086F
:10182800006402582DE9F047044600EBC106002584
:101838001C4FB44201D1002014E02068C30600F018
:101848001F0911D4656845F02005C0F3471AC0F395
:1018580043200A2823D857F82080B8F1000F0DD16B
:101868006FF01200BDE8F087B9F1100F04D0B9F19C
:10187800110FEAD16568E8E73025E6E7404602F04F
:10188800A5F90028ECD04B462A460AF00F0140463D
:1018980001F0F4FE002804F10804CADAE2E76FF068
:1018A8001500DFE72C470408F8B50C4603694168C2
:1018B8005D682379012B15D09F1E7E427E41B602BA
:1018C8006279022A96BF444F4FF4005737F81270D6
:1018D800A279022A09D0042A2FD0003B18BF01237D
:1018E8001B0306E04FF4C066EAE7B3FA83F35B092B
:1018F8001B07E2790968012A14BF4FF0000C4FF466
:10190800407CA5421CD10A6822F0805222F4B052D1
:1019180032431A430A604B6823F440533B434B60FD
:1019280043681A68936823F4407343EA0C0393608E
:101938002968BDE8F84002F0B3B84FF48053D8E7FF
:10194800D1F800E00EF4C06E764506D0D1F800E07C
:101958002EF4C06E4EEA06060E6041680E68716885
:1019680001F440518F4204D0716821F44051394349
:10197800716041680E68316801F010218B4204D013
:10198800316821F010210B433360436819688B6874
:1019980003F440739C4505D08B6823F4407343EAF5
:1019A8000C038B6043681B689968490405D5032AB2
:1019B80009D09A6822F4804204E0032A03D19A6885
:1019C80042F480429A6021682B68994203D002F061
:1019D80067F823682B60F8BD5048040873B50546BE
:1019E800446806695A48306002F0F0F818B96FF098
:1019F800120002B070BD3068E16883681B689847C0
:101A08000028F6DB01AA0021206A01F04FFE002819
:101A1800EFDB019B002219791868FFF703FF002804
:101A2800E7DB6C682B6922685E68136823F00103A2
:101A38001360606802F0CAF80028D8D0D4E9010120
:101A48008368DB6803B19847226852E8003F43F097
:101A58000C0342E800310029F7D131462846FFF748
:101A680023FF237D23B12268936843F00803936022
:101A7800637D23B12268536843F400435360A37D18
:101A880023B12268536843F480335360E37D23B164
:101A98002268536843F400335360227E2368002A87
:101AA8003ED02C4A93421ED0A2F54C4293421AD003
:101AB80002F58062934216D002F58062934212D0FA
:101AC80002F5806293420ED002F5444293420AD056
:101AD800A2F51C42934206D002F58062934202D0DE
:101AE8001D4A934231D16B681A68936843F4804366
:101AF80093602268617E136823F0787343EA415348
:101B080013602268A17E136823F4F81343EA0143A3
:101B18001360E37E23B12268936843F40043936023
:101B2800237F23B12268136843F0005313602268AF
:101B3800136843F0010313602368DA699102FCD546
:101B4800DA695202FCD5002053E76FF0150050E720
:101B5800E83F040800100140000C0058F8B50246A0
:101B6800036946680C4608795D68012891F805E024
:101B78008B7921D1BEF1020F7BD9022B1F464FF47E
:101B8800C0614FF4005C00F08D80042B00F084806D
:101B980028B1C31E012B40F282804FF48050BCF55F
:101BA800805F00F08980BCF5405F00F08780BCF161
:101BB800000F1CD101231BE002280AD1BEF1020F3D
:101BC80063D9022B1F464FF480610BD04FF4005CA1
:101BD800DBE7BEF1020F5BD9022B1F465AD1002862
:101BE80066D00021C31E012B59D9002002270323E8
:101BF800734554D101F00EFFB84250D1E37923B3B5
:101C0800012B5DD1336830498B421ED0A1F54C4180
:101C18008B421AD001F580618B4216D001F58061A4
:101C28008B4212D001F580618B420ED001F5444100
:101C38008B420AD0A1F51C418B4206D001F5806188
:101C48008B4202D021498B4229D1316810460B685A
:101C580023F001030B602146FFF726FE3268136864
:101C680043F00103136094E8030085E803000020B3
:101C7800F8BD4FF4C061164F022B37F81EC01F463F
:101C880083D178B94FF0805089E74FF48061F2E74B
:101C98000021F0E7002199E700283FF47EAF6FF0BC
:101CA8008500E5E7C31E012BF9D90227002076E756
:101CB80001464FF080509AE7002399E7022397E7FF
:101CC800032B9FD0EBE700BF00100140000C005829
:101CD800504804084FF0E0230F4910B59C691A6971
:101CE80008689B6902F480320C4934B993B90346F9
:101CF8004AB90A681044C01A10BD002B08BF034631
:101D08000AB9A342F5D90A6802440A604FF0E022F2
:101D18001269EEE70446F3E72C03002428030024A5
:101D28000A4B1022002083F823204FF41652084B48
:101D38001A6042F27F52074B18604FF0E0235A6155
:101D480098611A6942F007021A61704700ED00E0D5
:101D58002C0300242803002410B5FFF7BBFF10490B
:101D6800104B0868D3E90042001942F10002C3E9A8
:101D780000020D4A00230B604FF41653D2E90041CC
:101D8800001BB0FBF3F043431B1941F10001C2E90A
:101D9800003100F079FFBDE81040FEF7E3BC00BF5A
:101DA8002803002498000024900000242DE9F04125
:101DB800DFF8E08099B1421C0BD14FF0E0221369A3
:101DC80023F0010313614FF07F43C8F80030BDE8EA
:101DD800F081D8F80060012807DC00270BE0431CDD
:101DE800D8F80060F7D140F2D26040F2D36398424D
:101DF800A8BF1846471E4FF01003EFF3118583F371
:101E08001288BFF36F8FFFF765FF234C4FF0E02375
:101E18009969D4E9002380184FF0000243F10003C8
:101E2800C4E900031D4B1A601D4B1A68831A2ED48F
:101E38004FF4165C0CFB073303F515533F33B3FB24
:101E4800FCF7131A174A0CFB0733B3F5806F38BF3A
:101E58004FF48063934228BF1346C8F800304FF010
:101E6800E022013B90695361002381429361A1EB19
:101E78000003D4E9001238BF9B195B1842F1000235
:101E8800C4E9003285F31188BFF36F8F9FE74FF4E1
:101E98008063E2E72C030024980000242803002430
:101EA8009000002400C3FF0038B54FF01003EFF393
:101EB800118583F31288BFF36F8F084B1C68084B9A
:101EC8001B68E41AFFF706FF85F31188BFF36F8FCD
:101ED8004FF416532044B0FBF3F038BD98000024AB
:101EE80090000024024A536823F0020353607047AD
:101EF8000010005C002854D02B4A936903F4404337
:101F0800B3F5404F1FD1294B294A0344934242D984
:101F1800284B294A034493423FD9284B984240D83A
:101F28000020274A136823F00F0303431360136844
:101F380003F00F03984232D0136803F00F03C01A5E
:101F480018BF01207047936903F44043B3F5004F6D
:101F58000ED11C4A1C4B02449A421AD91B4A02440D
:101F68009A4218D91A4A02449A4216D90133D5E737
:101F7800184A194B02449A4209D9184A02449A420B
:101F880007D9174A02449A4205D9164AEBE70420B2
:101F9800C7E70320C5E70220C3E70120C1E70346DE
:101FA800CDE70120704700BF00480258FFC4A7F7DB
:101FB800FFE0F5057FE2D3FB7F1D2C04801D2C0478
:101FC80000200052BF4C2AF6BF3B47037F8871F9B7
:101FD8003FC4B8FCFF6A45F53FA5AE023F10F4F7D1
:101FE8007FB5A2FABF5A51FD38B54FF01003EFF391
:101FF800118583F31288BFF36F8F064B9C6801F03D
:10200800F9FD85F31188BFF36F8F2046BDE838408E
:10201800FEF722BD34030024104B70B553F820405E
:10202800013053F82060A64200D870BDD4E90035CD
:1020380095B153B12846984738B10028EB68B8BF26
:102048004042FF28A8BFFF201870EA68537843F081
:10205800010353700834E6E79847FBE7384804085B
:102068002A4B0122032070B5294C86B0294D1A70DD
:10207800FFF7D2FF00F08EFE0420FFF7CDFF2646C3
:102088003034AE4210D3224C00F0C4FB224EAC4296
:1020980026D300F0D3FBFEF765FA204A137B23F022
:1020A8000103137306B070BD54F80C3C059354F843
:1020B800103C049354F8143C039354F8183C0293CE
:1020C80054F81C3C019354F8203C009354E90A232B
:1020D80054E90C0100F094F954F8303C5E65CEE701
:1020E800D4E90A23B3F1FF3F08BFB2F1FF3F05D09F
:1020F80052EA0301206803D101F09EFD3034C6E79F
:102108003146183000F04AFDF8E700BF65030024A7
:10211800D8450408D84504084B3D0408200100248C
:1021280003480021034A08B5121A01F066FD08BDEC
:10213800900000246803002470B5002386B00122B3
:102148001A4E019304461A4D06EBC0161949CDE9FB
:1021580004230F22CDE9023214234FF4A07203FBAB
:1021680000554FF4C070144B00FB04113046009525
:1021780000F046F9737B114A23F00403EE602C74D7
:1021880073734FF4046304FB033313446B60BFF3AE
:102198005B8F0B4B53E8001F013143E80012002A04
:1021A800F8D1BFF35B8F06B070BD00BFA00000245C
:1021B80034030024C00B00240B3C040880030024D3
:1021C8003003002480B50020A6B0FFF725FF2A4B76
:1021D80083F30888294D0024F023294E294F85F8D8
:1021E8002230EC772C766C76AC7685F820406B6ADA
:1021F80043F4E0236B62FEF707FCFEF72DFD4FF07A
:10220800FF33AB62EB62FEF7FDFD1F4DFEF758FD95
:1022180040F201132194ADF8243006ABCDE91E44F9
:10222800B36001F0D2FC0120FFF7F6FE0220FFF7B1
:10223800F3FE00F01FFB154B75614FF480620593A8
:102248000123134928460094CDE90343CDE901440D
:102258003B4600F0D5F86A7B0646284622F0040281
:102268006A7301F020FD2046FFF766FF3A463146C3
:102278002846FEF7D5FC00BFC00B002400ED00E0A7
:102288003403002469200408200100248849040834
:10229800400D00242DE9F341044617461E464FF031
:1022A8001003EFF3118883F31288BFF36F8FC368AD
:1022B800334A7BB180689168884219D057EA06038F
:1022C80018D188F31188BFF36F8F6FF00F0002B039
:1022D800BDE8F081916891F90E1001332161E36046
:1022E8009368A36088F31188BFF36F8F0020EEE72F
:1022F8002169F2E791F90E106FF07E0290F90E3025
:102308009942A8BF19469142B8BF11468B422EDDAB
:1023180001F083FC0546224641461A48CDE900767D
:1023280000F0BCF90028E1D04FF01003EFF311865C
:1023380083F31288BFF36F8FA068D0B12368216937
:102348009C420AD04BB193F90E309942A8BF194666
:102358006FF07E039942B8BF194601F05EFC40B1A8
:102368003146084800F012FA6FF00A00AFE700257E
:10237800D1E7002DF4D186F31188BFF36F8FF3E70F
:10238800340300246603002438B5836804466BB31D
:10239800194A926893422CD1C368012B03D9013B97
:1023A800C360002038BD4FF01003EFF3118583F3AD
:1023B8001288BFF36F8F0169806801F02EFC2046F8
:1023C80001F0C3FCA06058B190F90E2022610022F0
:1023D800826701F068FC2946084800F0D7F9E0E771
:1023E800E06085F31188BFF36F8FDAE76FF01500AF
:1023F800D8E74FF0FF30D5E7340300246603002404
:102408002DE9F04385B00E461F4600F15803109998
:10241800044606F1400901730421C0E916334173EB
:1024280000230F9983608173C373C0E90633D01DFD
:1024380020F007007F3020F03F003F28A0F140083F
:1024480005D8404080F311884FF0040002DF3518AA
:1024580020462946FEF766F907300E9B314620F0E4
:102468000700C4E91898A0662D1A029320460D9B10
:102478002A4601930C9B00933B46FEF7A5FB0023DD
:102488006365044B9B6803B1DB6E2846E36605B0C1
:10249800BDE8F0833403002470B506460C4801F00B
:1024A800BAFC0C4D044600B9EC68AB683EB95A7BDF
:1024B800D20604D1A26912B9DA897F2A05D89C42CA
:1024C80002D0204600F0B2FA23466B6170BD00BF0F
:1024D8004C0300243403002410B590F90D20044661
:1024E800437B002A06DA03F07F030146437306485C
:1024F80001F089FC054B9868031B5842BDE8104061
:102508005841FFF7C9BF00BF4C030024340300241F
:1025180070B490F90D30427B002B29DBD30627D10C
:1025280083692BBB62F07F02124942730A4652F854
:10253800184F944218BF2346CC6923B9C0E9002438
:102548002060C8610CE090F90E5093F90E60B54216
:102558000AD0AE4208DD5A68C0E9003210605860FF
:10256800002070BCFFF798BF9C42E7D01B68E4E7E7
:1025780070BC704734030024002A2DE9F0410CBFD9
:1025880010250825437B04460E461D420AD12B43DD
:10259800D90903F09F0211D14273082D16D00120EA
:1025A800FFF77AFF1C4B9B68A3422ED1EFF30583FC
:1025B8005BBB3046BDE8F041FEF764BA03F01F0389
:1025C80001464373154801F01EFCE6E7A36813B102
:1025D800204601F033FB04F158074FF0000804F1DE
:1025E800180001F0F6FBA56DBD42D8D0002DD6D05D
:1025F800284601F023FB05F1180001F0EAFB284604
:10260800C5F87880FFF784FFEDE786F31188BFF3FC
:102618006F8FBDE8F08100BF340300244C03002411
:1026280070B590F90D200446437B002A06DA03F0C2
:102638007F0301464373174801F0E5FB637B164AA5
:1026480063F07F031146637351F8183FD0698B42DA
:1026580008BF002323B9C4E900100460D4610CE06A
:1026680094F90E5093F90E60B5420ED0AE420CDDCF
:102678005968C4E900310C605C609068031B5842DB
:10268800BDE870405841FFF707BF9842E3D01B6888
:10269800E0E700BF4C03002434030024F8B5134BD3
:1026A8000C461146124A9868DDE9067610604FF02C
:1026B8001000EFF3118280F31288BFF36F8F9D68CB
:1026C800284601F0C8FAB6F1FF3F08BFB7F1FF3F4F
:1026D80006D03A463346074905F1180000F05EFA7D
:1026E8002046BDE8F840FEF7CDB900BF340300240A
:1026F800540300244B3D04082DE9F04104464FF0F3
:102708001003EFF3118883F31288BFF36F8F437BB5
:102718004EB2DA061BD18569CDB903F07F031A4F93
:1027280001464373384601F06EFB637BA67363F082
:102738007F0363733B4653F81829BA4218BF1546FE
:10274800DA6965B9C4E900721460DC6112E000203E
:10275800A67388F31188BFF36F8FBDE8F08195F9F0
:102768000E108E420BD0B14209DD6B68C4E90053EC
:102778001C606C600120FFF78FFE0120E9E7AA4288
:10278800E0D02D68DDE700BF4C03002449B9EFF322
:10279800058030B9054B5A699B689A4201D0FEF70B
:1027A80071B981F31188BFF36F8F70473403002428
:1027B80010B54FF01002EFF3118482F31288BFF3C3
:1027C8006F8F427B510704D484F31188BFF36F8F56
:1027D80010BD22F004024273FFF79AFE2146024818
:1027E800BDE81040FFF7D2BF66030024034648B98E
:1027F800EFF3058232B9064A51699268914201D0D5
:10280800FEF740B983F31188BFF36F8F704700BF9D
:10281800340300244FF01003EFF3118183F312887F
:10282800BFF36F8F044B9A68D37B013BD37381F35B
:102838001188BFF36F8F70473403002410B54FF031
:102848001003EFF3118483F31288BFF36F8F084BE3
:1028580000209A68D37B0133D373FFF71DFE84F3FE
:102868001188BFF36F8FBDE8104001F087BA00BF31
:1028780034030024024B03F11802C3E9062270470F
:1028880034030024F8B54FF01003EFF3118683F3F7
:102898001288BFF36F8F1A4CA16804F118054B7B9F
:1028A800284603F07F034B7301F0ADFAA3685A7B07
:1028B80062F07F025A73A269E169AA4208BF002246
:1028C80022B9C3E900510B60E3610CE093F90E00F3
:1028D80092F90E70B8420ED087420CDD5168C3E9F8
:1028E80000210B6053600120FFF7D6FD3046BDE89C
:1028F800F840FEF7C7B88A42E3D01268E0E700BFA5
:102908003403002450EA01032DE9F04105460E4640
:1029180003D1FFF7B7FF00202CE0831C71F1FF33D0
:102928002ADB01F06CFA2C184FF01003EFF3118832
:1029380083F31288BFF36F8F114F124BB86818607A
:10294800FFF7CAFDB8682A460F493346183000F029
:1029580025F9BA684046537B43F010035373FEF7DA
:1029680091F801F04CFA201A63EB0303012873F184
:102978000003D0DBBDE8F0816FF00104241AD3E72F
:1029880034030024540300244B3D0408B1F1FF3FF5
:1029980008BFB0F1FF3F08B506D1094B986801F0B0
:1029A80092F94FF0FF3008BDFFF7ACFF0A22C117BC
:1029B80009304FF0000341F10001FDF769FCF2E72F
:1029C80034030024014B9868704700BF3403002487
:1029D800044B0122C01A044BC0105843034B1A542D
:1029E800704700BFA0010024ABAAAAAA660300246E
:1029F800C3897F2B12D80A4B1B6863B1094B90F926
:102A08000E201B689A4209DB437BDB0606D1064B86
:102A1800C31A18BF012303F0010070470023FAE727
:102A28005C03002458030024A00000240E4B70B55A
:102A38001E7C05460D4C06EB460304EBC3042046FA
:102A480001F0C7F90A4B002228469A55FFF7D0FF34
:102A580048B1084B204608491A68013ABDE8704059
:102A6800D31700F09BB870BD34030024A0010024E4
:102A7800660300245C030024D929040838B54FF004
:102A88001003EFF3118583F31288BFF36F8F104B98
:102A9800104A9C681068A04206D1FFF7C7FF85F36B
:102AA8001188BFF36F8F38BD00211B7C11600A4A63
:102AB800D35C002BF3D02046FFF79AFF0028EED016
:102AC800637BDB0602D12046FFF7AAFD2046E4E738
:102AD8003403002454030024660300240648074AEC
:102AE8000749121A08B501F08AF8064A0649074844
:102AF800BDE8084001F083B8000000248C000024E1
:102B0800D849040800000000D8490408000000243F
:102B1800034B1B680BB9FFF7C7B90020704700BF0C
:102B28006003002430B570B10B4B5B6898420AD043
:102B3800036843B1D3E90421D0E90445121941EBF4
:102B48000501C3E90421D0E9003213605A6000236B
:102B5800C0E9003330BD00BF440000240E4B10B55F
:102B68001C689C4204D1FFF7D3FF6FF0004010BDF2
:102B7800FFF7CEFF002CF8D0D4E904321B1A62EB21
:102B8800E072B3F1004F72F10001EEDA002AACBF37
:102B980018460020EBE700BF44000024B3F1FF3FD4
:102BA80008BFB2F1FF3FF8B504461D4616465CD093
:102BB80081604FF01003EFF3118783F31288BFF39E
:102BC8006F8F013275F1FF3324DA2D496FF001035D
:102BD800D1E900209B1A4FF0FF3262EB00009E1BE8
:102BE80060EB0500012E70F1000301DA01260020D8
:102BF800C4E90460234ED6F800C07568B44508BF20
:102C08004FF0000CBCF1000F0DD1C4E900652C6039
:102C180074601CE0FFF77CFF013645F100053618AB
:102C280045EBE070E4E7DCE90420D4E904319342A1
:102C380071EB000E1ADAD21ADCF8043060EB0100EE
:102C4800CCE90420C4E900C31C60CCF80440336814
:102C5800B34206D09C4204D1FFF780FF0021FFF762
:102C6800A5F887F31188BFF36F8FF8BD9B1A61EB46
:102C78000001AC45C4E90431C7D0DCF800C0C1E7A5
:102C8800B8010024440000242DE9F84F4FF0100348
:102C9800EFF3118C83F31288BFF36F8FDFF8B4A0C2
:102CA8000024DFF8B49000252C4FC9F80000DAF8AA
:102CB8000000504508BF0020D9F80030E046D7E9A9
:102CC800002180B34FEAE37ED0E9046CB3427EEB87
:102CD8000C0B05DAF61A6CEB0E04C0E9046422E06A
:102CE800B21841EBE671C0E90445C7E90021FFF7D6
:102CF80019FF88F31188BFF36F8F836898474FF0E7
:102D08001003EFF3118883F31288BFF36F8FD9F89C
:102D18000030C446DAF800009B1B5045C9F8003063
:102D2800CAD1D7E900219A184FF0000441EBE373A8
:102D3800C9F80040C7E90023FFF710FF2146FFF755
:102D480035F888F31188BFF36F8FBDE8F84FFFF7A8
:102D580095BE00BF4400002460030024B80100248D
:102D680010B54FF01003EFF3118483F31288BFF30B
:102D78006F8FFFF7CDFE064A0346D2E90001181807
:102D880041EBE37184F31188BFF36F8F10BD00BF6F
:102D9800B8010024014800F055BB00BF8D49040864
:102DA8000FB407B5064B04AA186852F8041B019221
:102DB80000F008F803B05DF804EB04B0704700BFFA
:102DC800284604082DE9F04F8DB0436802938378B4
:102DD80015469A07804640F10D8100240E78002E92
:102DE80000F00A81252E0BD04B1C03930134029B63
:102DF8004146304698470028C0F2F6800399EDE72F
:102E08004E788B1C252E0393F0D00027B946BB467D
:102E1800BBF11F0F38D8A6F12003102B0AD8DFE822
:102E280003F02A0909300909092109090928092D86
:102E380009091F00A6F13003092B33D92A2E37D1EF
:102E48001BF0400F55F8043B40F08280002BA7BFD1
:102E58004BF0200B9946C3F100094BF0280B01E019
:102E68004BF0010B039B13F8016B0393002ECFD19A
:102E780030E04BF0020B4BF0040BF3E74BF0080B80
:102E8800F0E74BF0100BEDE7BBF17F0F19D8A6F177
:102E98003003092BD2D81BF0400F03D00A2101FBC5
:102EA8000737DFE70A2101FB09394BF0200BD9E787
:102EB8002E2E06D11BF0400F40F09E804BF0400BA9
:102EC800D0E76C2E31D02BD8682E36D06A2E3CD065
:102ED8004C2E3AD0002F46F02003B8BF2BF040020A
:102EE800A3F16501BCBF1FFA82FB0027022901D9A3
:102EF800612B2FD1073525F00705DFF8ACA208357F
:102F080007271BF0080F66D00AEB070B56465E45ED
:102F180063D1A4EB0A0A06EB0A02A9EB07096FE1E1
:102F2800742E9FD07A2E9DD0D4E71BF0800F18BF47
:102F38004BF4007B4BF0800B94E71BF4807F18BFA9
:102F48004BF4007B4BF4807B8CE74BF4207B89E7C8
:102F58001F4687E7A6F16301122900F2F080DFE837
:102F680011F013004F00EE00EE00EE00EE004F00EF
:102F7800EE00EE00EE00EE00EE00FE00E900EE00CE
:102F8800EE001B00EE00AF0055F8043B8DF818303A
:102F980001270DF1180AB4E755F804AB834BBAF1D1
:102FA800000F08BF9A461BF0400F14BF39464FF078
:102FB800FF31504600F035FF0746A2E7029B414625
:102FC8002020984700280FDB013EB742F6D34C4437
:102FD800A41BB14698E74E46F7E716F8010B029B8B
:102FE80041469847002892DA98F8023043F00403E3
:102FF80088F802304FF0FF3420460DB0BDE8F08F5E
:103008001BF0800F34D01BF4007F2CD0073525F03F
:103018000705AA4669685AF8080B2BF0100500291D
:10302800ADB237DA404261EB410145F480650DF1FC
:10303800180B0A235A4600F000FFA0EB0B0301937C
:103048006B0662D5019B25F001019F4289B240F3CE
:10305800A180002E00F0998015F0100240F09C80AD
:10306800BB460D4623E0AA465AF8040BC117D4E71D
:10307800AA461BF4807F5AF8041B01D10846F5E7DD
:103088001BF4007F15BF48B208B241F3C01141F3E9
:10309800C031C2E750EA0103C9D11BF0400FC6D0C6
:1030A800002FC4D12BF0110295B2BB46019740F214
:1030B800064115EA01021CBF0BF1010B00222CE0AE
:1030C8002BF010021FFA82FB0A231BF0800C49D058
:1030D8001BF400711DBF073525F00705AA46AA464F
:1030E8001ABF5AF8080B69685AF8040B50EA010528
:1030F80045D12BF016051BF0400FADB242D0002F82
:1031080040D12BF0170295B2019715F0100248D064
:10311800019B002E42D103F1010B29075AD4EB077A
:1031280006D5D9456FDD0199A9EB0B035F18CB468E
:103138005B4649E04BF0100B10237826C5E7782B47
:1031480004D1C6F1780343F01003BEE7029B414661
:10315800252098470028FFF647AF023447E60823A2
:103168000026B2E7AA461BF480715AF8040BBDD0BA
:103178001BF400711ABFC0B2614680B2B6E72BF0EB
:10318800060295B20DF1180B54E725F01105ADB202
:10319800BB468CE70D46B8E73B460D4603F1020BEC
:1031A800BBE7DDF804B082E7CF490408C849040842
:1031B800CDE904324146029B202098470028FFF6BB
:1031C80013AF049B059A01339945F1DCA4EB0B017D
:1031D800CC189B460AB3029B4146302098470028EA
:1031E800FFF602AF8EB901342744019B391B99427F
:1031F80024DC1D465DBB019AA9EB0B092244554608
:103208001446914435E0019F92E702344146304626
:10321800029B98470028E7DAE6E640F206410D42AD
:10322800E2D015F0020F14BF2B20202015F4806F78
:1032380004F10104414618BF2D20E9E7029B4146ED
:1032480030209847002804F10104CEDACCE606AB1A
:10325800013D4146585D029B98470028CADAC3E6FB
:10326800029B414620209847002804F10104FFF6FC
:10327800BBAEA9EB0403002BF2DCBFE57047836803
:1032880000EBC101B3F5004F2CBF51F8220031F813
:103298001200704700EBC1018068B0F5004F2CBFE9
:1032A80041F8223021F812307047012208B5FFF7A3
:1032B800E6FFD04008BD836800EBC101B3F5004FBD
:1032C80008D34B681AB143F001034B60704723F0F1
:1032D8000103FAE74B881AB143F001034B807047AA
:1032E80023F00103FAE753000122FFF7D3BFB0F53B
:1032F800004F01F1010034BF042308230833A0EB79
:10330800D300B0FA80F0C0F11F0070472DE9F041FA
:1033180086680D460446FFF7C8FFB6F5004F01461C
:1033280001D3012832D03046FFF7E1FF04EB8001DA
:103338000E6996B90122E3688240204613430222AF
:10334800E3602B460D612946FFF7A4FF03222946B7
:103358002046BDE8F041FFF79DBF022231462046D6
:10336800FFF78DFF2946034607462046FFF792FFE1
:103378000322334629462046FFF78CFF39462B4661
:103388002046FFF787FF02223146E1E7BDE8F081DA
:10339800B2F5802F2CBF08230423D21A2DE9F0415F
:1033A8008C18CD1D002625F0070524F00704641BA2
:1033B8000560EE60E40821462046AC60FFF797FF01
:1033C800421D013031464FEA820205F1100002F138
:1033D8000707A2F11002B8BF3246FF0800F092FDBD
:1033E80031463A462846FFF77EFFA4EB07083346E6
:1033F800324631462846FFF74DFF2846314601221E
:10340800FFF759FF42463946FFF76DFF3B46324604
:1034180039462846FFF73EFF21462846FFF763FF57
:103428004346324621462846FFF734FF21462846C0
:103438000122FFF740FF3946BDE8F041FFF766BFBC
:10344800002070470FB407B504A951F8040B019187
:10345800FDF7C8F803B05DF804EB04B07047704797
:1034680008B5FEF73FFD002008BDFEF7BDBD0146CB
:103478000068FEF7B9BD08B5FDF750F9BDE808408A
:10348800FDF770B900210120FFF7EFBF202809D907
:10349800B0F1004F08D80138B0FA80F0C0F11F0031
:1034A80040007047082070473E20704708B5FDF778
:1034B80059FD002008BD08B5062201210020FDF7AE
:1034C800B9FD002206201146FDF744FB0121072221
:1034D8000846FDF7AFFD002207201146FDF73AFB2D
:1034E800082201210220FDF7A5FD0022082011462F
:1034F800FDF730FB092201210320FDF79BFD002287
:1035080009201146FDF726FB0A2201210420FDF7B8
:1035180091FD00220A201146FDF71CFB0521172208
:103528000846FDF787FD002217201146FDF712FB1C
:10353800282206210A20FDF77DFD002228201146B9
:10354800FDF708FB002008BD1F2809DC4FF0B0413B
:103558000122D1F88030824023EA0203C1F880308A
:103568007047436800205B681B690B6070474368BD
:1035780000205B68996170474368090400205B6814
:103588009961704710B503699868F8B1884219D1F4
:10359800DC680868A142986000D1D8600020086003
:1035A8002AB19A680A60DA68996002B9D96000207D
:1035B80010E0814206D108682060D8688142EDD1C8
:1035C800DC60EBE7044600680028F2D1002AE8D165
:1035D8006FF0150010BD38B5044690030D4613462C
:1035E80017D591070ED55A072ED55022D8060BD5D8
:1035F80042F4007219031AD5616801234968AB4087
:103608008B610DE01022F1E79906F3D542F4806250
:10361800F0E7DA0313D5D80613D4C3F340139A029C
:10362800606800232946FEF709F8002038BD5B03CF
:10363800F6D501212046A940FFF79EFFF0E730228A
:10364800EEE74FF40072EBE76FF08500EEE70B460C
:1036580070B5896821B101255E680C68854001B99B
:1036680070BD8A682A4002D04B68304698471CB122
:10367800236821461C46F2E72346FAE7F8B51F46B9
:10368800044640680E461546FDF7D8FF112F07D1AE
:1036980001212B0501FA06F104D563685B6899617D
:1036A8000020F8BD2046FFF767FFF9E730B503684B
:1036B80013600579046804EBC504A34202D36FF0D4
:1036C800010030BD5C798C4201D00833F0E700205E
:1036D800F7E708B568B163304FF064024FF00003B4
:1036E8002CBF01210021FCF7D3FDBDE80840FFF7FE
:1036F8004DB908BD10B50469204600F096FA0023BC
:10370800636110BDF8B5876806467C68E4B1436814
:1037180093F8264014F0010418D105694FF0FF33DF
:103728004FF0FF322846FEF7B5FD6B69013B6B6130
:103738003BB97B6830469847041EBEBF6B690133AE
:103748006B612846FEF720FE2046F8BD0024FBE703
:10375800F0B4D0E901631B693BB177688F4208DB9D
:103768003568954205DCF0BC18476FF05700F0BC8F
:1037780070476FF01500FAE7F0B4D0E901631B6AEF
:103788003BB137698F4208DBF568954205DCF0BC30
:1037980018476FF05700F0BC70476FF01500FAE754
:1037A80070B4D0E9016203460C46956AA5B196F853
:1037B800242012B92B4670BC1847306A024410F80E
:1037C800011BA14202D121461846F3E79042F6D1E7
:1037D8006FF0850070BC70476FF05700FAE72DE96D
:1037E800F341D0E901470E46804694F82510056953
:1037F800FF290FD194F82610C1F38101022914D0B2
:10380800D8F8083000391B6B18BF01214BB96FF08D
:10381800570003E0FFF7C4FF0028EBDA02B0BDE869
:10382800F081404698470028F8DBA268B2F1004FC3
:1038380005D011464046FFF78BFF0028EEDB626992
:10384800B2F1004F05D011464046FFF795FF00281A
:10385800E4DB2368B3F1004F14D0D8F808305B6973
:10386800002BD4D001A9404698470028D6DB22680F
:10387800019B9A421CDD11464046FFF769FF00286C
:1038880005DACBE762686FF000439A42E5D19EB94A
:1038980094F826309B0716D03B6840469847002886
:1038A800BCDBA069FFF715FF6B6901336B610AE0A8
:1038B80062689342EBDDDEE76B6901336B6194F874
:1038C8002630DA0601D40020A8E74046FFF71AFFA1
:1038D800A4E7012303FA01F103691B68194218BF21
:1038E80082F0010212B18368DB68184783681B699C
:1038F800FBE708B54368986A38B1012293F82C10A1
:10390800FFF7E7FF00EAE07008BD6FF08500FBE70E
:1039180043681868B0F1004018BF0120704703469B
:10392800084631B95B681B68B3F1004F01D01360DA
:1039380070476FF015007047F8B545680446FFF703
:10394800D9FEA86A28B920460021BDE8F840FFF74B
:1039580046BF00F03BF9B0B1EB8DA86A95F82C1082
:1039680043F400320125066913F0010F87683368B4
:1039780005FA01F514BF2B43AB4333603B68984706
:103988000028E0DAF8BD6FF01200FBE74368986A98
:1039980020B1002293F82C10FFF79BBF6FF0850031
:1039A80070474368C1F34B1001F01F011B68C058F2
:1039B80001238B4003424FF0000014BF0123002372
:1039C8001370704710B54368C1F34B1001F01F0125
:1039D8001A68012384588B4023438350002010BD6C
:1039E80010B54368C1F34B14012201F01F01186898
:1039F8008A40235823EA02032350002010BD38B51B
:103A080004460D46FFF7DEFF29462046FFF7E8FF8C
:103A1800002038BDB0F5805F07D0B0F1805F09D1D4
:103A2800002914BF012002207047002914BF032079
:103A380004207047002914BF022003207047426801
:103A48001368D869D969C0F3C000C907D96948BFE4
:103A580040F002008907D96948BF40F004004907CF
:103A6800D96948BF40F02000C90504D54FF48071DA
:103A780040F008001962C10702D5136808211962CD
:103A8800830702D5136801211962410702D513681B
:103A980002211962830602D5136804221A6270474C
:103AA80037B503690C4645681868E9688368DB68B8
:103AB8008BB101AA984700280DDB2A68136823F404
:103AC8000043136001992B682CB101EB5401B1FB41
:103AD800F4F189B2D96003B030BD10B5406802680E
:103AE800D3691B06FCD54FF01002EFF3118382F364
:103AF8001288BFF36F8F0268D469240604D483F355
:103B08001188BFF36F8FEAE7916283F31188BFF3DF
:103B18006F8F10BD43681A68D069000701D5082067
:103B280010621B68DA69920603D55B6A00200B7085
:103B380070474FF0FF30704710B5026904460B46D6
:103B4800526812680A6042681268126802F4C06219
:103B5800B2F5806F33D0A2F5C060424242411A717B
:103B680062681268526802F44052B2F5805F28D049
:103B7800B2F5405F27D0002A0CBF012203225A71F8
:103B8800626812681068116800F0102001F4C061C2
:103B9800FFF740FF9871626800201268926802F48B
:103BA8004072A2F540714A424A41DA716168096877
:103BB800896811F4804F18BF0322DA7110BD022200
:103BC800CDE70022DBE70222D9E7704740B1C3689E
:103BD800587810F001001EBF1878B0FA80F040093C
:103BE80070474FF01002EFF3118382F31288BFF38E
:103BF8006F8FFEE708B5FFF7F4FF00F083B900F018
:103C080073B908B54FF01002EFF3118382F31288ED
:103C1800BFF36F8FFDF726F8F4E790F90E308B426B
:103C280001D0FEF769BD0020704703460020C3E9B4
:103C38000033C3E902007047FEF7BABD10B5044669
:103C48000146806800F0DFF8637B23F002036373AA
:103C58000023A36010BD38B504460D46FEF73CFCB2
:103C6800637B43F002036373E5B1A5602B689D4253
:103C780009D16B68C4E900531C606C6012E06A6883
:103C88009A42F6D01B68002BF3D094F90E2093F9D2
:103C98000E108A42F3D09142F1DD5A68C4E900322D
:103CA80014605C6038BD10B54FF01003EFF3118459
:103CB80083F31288BFF36F8FFEF72AFC84F3118811
:103CC800BFF36F8F10BD10B50446183000F081F8AF
:103CD8004FF01003EFF3118183F31288BFF36F8F56
:103CE800627B12F0100204D081F31188BFF36F8F4A
:103CF80010BD2046BDE81040FEF73EBC70B5044636
:103D08000D464FF01003EFF3118683F31288BFF3CB
:103D18006F8F437B13F0280F0BD183680BB1FFF72C
:103D28008DFF637B55B903F0FB0320466373FEF7F1
:103D3800EFFB86F31188BFF36F8F70BD03F0EB03C1
:103D4800F3E701211838FFF7D9BF38B54FF0100352
:103D5800EFF3118583F31288BFF36F8F00F05BF8E0
:103D6800044628B1FFF76AFF04F1180000F031F8A3
:103D780085F31188BFF36F8F204638BD4FF01003CD
:103D8800EFF3118083F31288BFF36F8FFEF72EBD18
:103D98004FF01002EFF3118182F31288BFF36F8F97
:103DA800027BD2070AD581F31188BFF36F8F404099
:103DB80080F311884FF0040002DF7047437B1B0734
:103DC80004D581F31188BFF36F8F70470122FEF786
:103DD800D3BB10B54FF01002EFF3118482F31288B1
:103DE800BFF36F8F03683BB1FEF79CFE002084F39E
:103DF8001188BFF36F8F10BD6FF01500F7E708B596
:103E0800FEF7AEFF08BDD1E9003213605A60002307
:103E1800C1E9003370470368984214BF1846002070
:103E2800704710B5024601448A42134603D01C78F5
:103E38000132002CF8D1181A10BDF0B5C3F13707BC
:103E48000446FFB203F01F031046082BE6B233D036
:103E5800102B3ED06508A40844EA817445EAC17570
:103E68002D194FEA910242EB5102290941EA0271E8
:103E78006D1842EB1212290A41EA02616D1842EBF1
:103E88001222290C41EA02416D1842EB1242AD1888
:103E980042F10002EC0844EA4274D10804EB8402BF
:103EA800A6EB4205EDB2092D0CD90134A5F10A059E
:103EB80041F10001EDB212E0E40844EA417406F071
:103EC8000705C908303554EA010200F8015BBCD186
:103ED800F0BD240944EA017406F00F050909092D0B
:103EE80084BFED19EDB2EDE70A44914200F1FF33CA
:103EF80000D1704710B511F8014B03F8014F9142FA
:103F0800F9D110BD02440346934200D1704703F82B
:103F1800011BF9E70148006870470000C001002450
:083F2800A4C3FF7F01000000AB
:103F30005D0604080000000065130408E83F04085B
:103F4000693404080000000000000000FC3F040881
:103F500015160408604004081516040824400408D7
:103F6000BF3404081040040815160408EC40040887
:103F700015160408D840040815160408C44004089F
:103F800015160408B0400408151604089C400408DF
:103F9000151604088840040815160408744004081F
:103FA000151604084C400408151604083840040887
:103FB000E519040800410408411504080000000048
:103FC000291D040800000000950F040800000000EF
:103FD000B90F040800000000413904081441040826
:083FE000B50604080000000012
:103FE800BA48040800000000140000246E000024F1
:103FF8000000000067490408C4470408C8470408CB
:1040080088000024000000009C480408000000000C
:10401800000000006C000024E0010024C7480408E8
:104028002C46040808470408700000246002002495
:10403800D5480408404604080847040872000024CC
:1040480070020024E348040854460408084704089A
:104058007400002480020024F1480408684604081B
:10406800084704087600002490020024FF4804084A
:104078007C4604080847040878000024A0020024AD
:104088000D49040890460408084704087A000024EB
:10409800B00200241B490408A44604080847040881
:1040A8007C000024C002002429490408B8460408FA
:1040B800084704087E000024D00200243749040879
:1040C800CC4604080847040880000024E0020024C5
:1040D80045490408E046040808470408820000240B
:1040E800F002002453490408F44604080847040869
:1040F800840000240003002478490408D8470408F1
:10410800244804088A000024300000246149040877
:104118005847040888470408860000241003002430
:10412800000000008D340408000000008D340408ED
:10413800000000008D340408000000008D340408DD
:10414800000000008D340408000000008D340408CD
:104158009A480408ED0F040898480408ED0F04086D
:1041680096480408ED0F040894480408ED0F040865
:1041780092480408ED0F0408000000008D3404087C
:10418800000000008D340408000000008D3404088D
:10419800000000008D340408000000008D3404087D
:1041A800000000008D340408000000008D3404086D
:1041B800000000008D340408000000008D3404085D
:1041C800000000008D340408000000008D3404084D
:1041D800000000008D34040890480408ED0F04081E
:1041E800000000008D340408000000008D3404082D
:1041F800000000008D340408000000008D3404081D
:10420800000000008D340408000000008D3404080C
:10421800000000008D340408000000008D340408FC
:10422800000000008D340408000000008D340408EC
:10423800000000008D340408000000008D340408DC
:10424800000000008D340408000000008D340408CC
:10425800000000008D340408000000008D340408BC
:104268008E480408ED0F0408000000008D3404088F
:10427800000000008D340408000000008D3404089C
:10428800000000008D340408000000008D3404088C
:10429800000000008D340408000000008D3404087C
:1042A800000000008D340408000000008D3404086C
:1042B800000000008D340408000000008D3404085C
:1042C800000000008D340408000000008D3404084C
:1042D800000000008D340408000000008D3404083C
:1042E800000000008D340408000000008D3404082C
:1042F800000000008D340408000000008D3404081C
:10430800000000008D340408000000008D3404080B
:10431800000000008D340408000000008D340408FB
:10432800000000008D340408000000008D340408EB
:10433800000000008D340408000000008D340408DB
:10434800000000008D340408000000008D340408CB
:10435800000000008D340408000000008D340408BB
:10436800000000008D340408000000008D340408AB
:10437800000000008D340408000000008D3404089B
:10438800000000008D340408000000008D3404088B
:10439800000000008D340408000000008D3404087B
:1043A800000000008D340408000000008D3404086B
:1043B800000000008D340408000000008D3404085B
:1043C800000000008D340408000000008D3404084B
:1043D800000000008D340408000000008D3404083B
:1043E800000000008D340408000000008D3404082B
:1043F800000000008D340408000000008D3404081B
:10440800000000008D340408000000008D3404080A
:10441800000000008D340408000000008D340408FA
:10442800000000008D340408000000008D340408EA
:10443800000000008D340408000000008D340408DA
:10444800000000008D340408000000008D340408CA
:10445800000000008D340408000000008D340408BA
:10446800000000008D340408000000008D340408AA
:10447800000000008D340408000000008D3404089A
:10448800000000008D340408000000008D3404088A
:10449800000000008D340408000000008D3404087A
:1044A800000000008D340408000000008D3404086A
:1044B800000000008D340408000000008D3404085A
:1044C800000000008D340408000000008D3404084A
:1044D800000000008D340408000000008D3404083A
:1044E800000000008D340408000000008D3404082A
:1044F800000000008D340408000000008D3404081A
:10450800000000008D340408000000008D34040809
:10451800000000008D340408000000008D340408F9
:10452800000000008D340408000000008D340408E9
:10453800000000008D340408000000008D340408D9
:10454800000000008D340408000000008D340408C9
:10455800000000008D340408000000008D340408B9
:10456800000000008D340408000000008D340408A9
:10457800000000008D340408000000008D34040899
:10458800000000008D340408000000008D34040889
:10459800000000008D340408000000008D34040879
:1045A800000000008D340408000000008D34040869
:1045B800000000008D340408000000008D34040859
:1045C800000000008D340408000000008D34040849
:1045D800F40000000200000003000000E8450408A1
:1045E800000000086C4804082600020700000024A8
:1045F8007248040824000B110000F01F77480408D3
:10460800240004117E4804080000009000000010F7
:1046180000000002000000240000000000000B065B
:1046280004000024FFFF0000002802580A000000D0
:10463800E000000000040000FFFF00000024025812
:1046480009000000E000000000020000FFFF000079
:104658000020025808000000E000000000010000EF
:10466800FFFF0000001C025807000000E0000000E7
:1046780080000000FFFF000000180258060000003C
:10468800E000000040000000FFFF00000014025896
:1046980005000000E000000020000000FFFF00000F
:1046A8000010025804000000E000000010000000A4
:1046B800FFFF0000000C025803000000E0000000AB
:1046C80008000000FFFF0000000802580200000078
:1046D800E000000004000000FFFF00000004025892
:1046E80001000000E000000002000000FFFF0000E1
:1046F8000000025800000000E00000000100000077
:10470800DF3504086B350408E91504087735040813
:1047180081350408C5150408051704088D350408F3
:1047280000000000EC400408D8400408C440040815
:10473800B04004089C4004088840040874400408F9
:10474800604004084C400408384004082440040829
:1047580000000080FFFFFF7F000000800000008055
:10476800FFFFFF7F00000080000000000000000045
:104778006749040800FF0A006040040801000000BF
:10478800FB3804089539040819390408273904083E
:104798000000000000000000000000000000000011
:1047A8000000000000000000000000000000000001
:1047B8000000000000000000000000000044025853
:1047C800AB390408CD390408E9390408073A040864
:1047D80000100140FC3F040804130000FC470408D3
:1047E80001000000000000000000000000000000C0
:1047F80004480408F0000000100000000C480408F9
:10480800010000001448040802000000270100000D
:104818000002000047010000000000001D3B0408E2
:10482800E33A0408473A0408651B0408413B0408B6
:10483800303F0408303F0408C03F0408C83F04085C
:10484800E83F0408E83F04080010000000304F4E1D
:10485800004F4646004C45442073746174653A2005
:1048680025730A00464C415348005352414D0053AA
:10487800595354454D006D656D6F7279403930302C
:104888003030303030000A0605050401030102010A
:1048980001010001696E746572727570742D636F21
:1048A8006E74726F6C6C65724035383030303030F1
:1048B800300072636340353830323434303000674A
:1048C80070696F403538303232383030006770697F
:1048D8006F403538303232343030006770696F409D
:1048E8003538303232303030006770696F403538D3
:1048F800303231433030006770696F4035383032BC
:1049080031383030006770696F40353830323134B3
:104918003030006770696F403538303231303030B0
:10492800006770696F403538303230433030006787
:1049380070696F4035383032303830300067706910
:104948006F403538303230343030006770696F402E
:104958003538303230303030006F7363656E007236
:10496800657365742D636F6E74726F6C6C6572001D
:1049780073657269616C40343030313130303000E9
:104988006D61696E002A2A2A20426F6F74696E670A
:10499800205A6570687972204F53206275696C647B
:1049A8002076332E362E302D323238392D67643941
:1049B80066643239326634623961202A2A2A0A004A
:1049C800286E756C6C29002A666C6F61742A000069
:1049D8004934040800000000B53404080000000051
:1049E8000000000019130408DD120408000000008C
:1049F800A111040800000000000000007112040862
:104A0800000000003800002400C20100000103007B
:104A18000090D0034400002444000024FF00FF005D
:104A2800FF00FF00FF00FF00FF00FF00FF00FF0086
:0C4A3800FF00FF00FF00FF00FF00FF0078
:104A44000000000000000000000000000000000062
:104A54000000000000000000000000000000000052
:044A640015E015E064
:0400000508040A35AC
:00000001FF
